{
	"data": {
		"bytecode": {
			"linkReferences": {},
			"object": "6080604052674563918244f400005f553480156019575f80fd5b50610774806100275f395ff3fe608060405260043610610033575f3560e01c80633e47d6f314610037578063b60d428814610073578063dc0d3dff1461007d575b5f80fd5b348015610042575f80fd5b5061005d6004803603810190610058919061037c565b6100b9565b60405161006a91906103bf565b60405180910390f35b61007b6100ce565b005b348015610088575f80fd5b506100a3600480360381019061009e9190610402565b610206565b6040516100b0919061043c565b60405180910390f35b6002602052805f5260405f205f915090505481565b5f546100d934610241565b101561011a576040517f08c379a0000000000000000000000000000000000000000000000000000000008152600401610111906104af565b60405180910390fd5b600133908060018154018082558091505060019003905f5260205f20015f9091909190916101000a81548173ffffffffffffffffffffffffffffffffffffffff021916908373ffffffffffffffffffffffffffffffffffffffff1602179055503460025f3373ffffffffffffffffffffffffffffffffffffffff1673ffffffffffffffffffffffffffffffffffffffff1681526020019081526020015f20546101c391906104fa565b60025f3373ffffffffffffffffffffffffffffffffffffffff1673ffffffffffffffffffffffffffffffffffffffff1681526020019081526020015f2081905550565b60018181548110610215575f80fd5b905f5260205f20015f915054906101000a900473ffffffffffffffffffffffffffffffffffffffff1681565b5f8061024b610279565b90505f670de0b6b3a76400008285610263919061052d565b61026d919061059b565b90508092505050919050565b5f8073694aa1769357215de4fac081bf1f309adc32530690505f8173ffffffffffffffffffffffffffffffffffffffff1663feaf968c6040518163ffffffff1660e01b815260040160a060405180830381865afa1580156102dc573d5f803e3d5ffd5b505050506040513d601f19601f820116820180604052508101906103009190610651565b5050509150506402540be4008161031791906106c8565b9250505090565b5f80fd5b5f73ffffffffffffffffffffffffffffffffffffffff82169050919050565b5f61034b82610322565b9050919050565b61035b81610341565b8114610365575f80fd5b50565b5f8135905061037681610352565b92915050565b5f602082840312156103915761039061031e565b5b5f61039e84828501610368565b91505092915050565b5f819050919050565b6103b9816103a7565b82525050565b5f6020820190506103d25f8301846103b0565b92915050565b6103e1816103a7565b81146103eb575f80fd5b50565b5f813590506103fc816103d8565b92915050565b5f602082840312156104175761041661031e565b5b5f610424848285016103ee565b91505092915050565b61043681610341565b82525050565b5f60208201905061044f5f83018461042d565b92915050565b5f82825260208201905092915050565b7f6469646e27742073656e6420656e6f75676820455448000000000000000000005f82015250565b5f610499601683610455565b91506104a482610465565b602082019050919050565b5f6020820190508181035f8301526104c68161048d565b9050919050565b7f4e487b71000000000000000000000000000000000000000000000000000000005f52601160045260245ffd5b5f610504826103a7565b915061050f836103a7565b9250828201905080821115610527576105266104cd565b5b92915050565b5f610537826103a7565b9150610542836103a7565b9250828202610550816103a7565b91508282048414831517610567576105666104cd565b5b5092915050565b7f4e487b71000000000000000000000000000000000000000000000000000000005f52601260045260245ffd5b5f6105a5826103a7565b91506105b0836103a7565b9250826105c0576105bf61056e565b5b828204905092915050565b5f69ffffffffffffffffffff82169050919050565b6105e9816105cb565b81146105f3575f80fd5b50565b5f81519050610604816105e0565b92915050565b5f819050919050565b61061c8161060a565b8114610626575f80fd5b50565b5f8151905061063781610613565b92915050565b5f8151905061064b816103d8565b92915050565b5f805f805f60a0868803121561066a5761066961031e565b5b5f610677888289016105f6565b955050602061068888828901610629565b94505060406106998882890161063d565b93505060606106aa8882890161063d565b92505060806106bb888289016105f6565b9150509295509295909350565b5f6106d28261060a565b91506106dd8361060a565b92508282026106eb8161060a565b91507f800000000000000000000000000000000000000000000000000000000000000084145f84121615610722576107216104cd565b5b8282058414831517610737576107366104cd565b5b509291505056fea264697066735822122057da8ce3955ee72035e2b901270155c72b467e82802af158937c3cdefdce4c6764736f6c634300081a0033",
			"opcodes": "PUSH1 0x80 PUSH1 0x40 MSTORE PUSH8 0x4563918244F40000 PUSH0 SSTORE CALLVALUE DUP1 ISZERO PUSH1 0x19 JUMPI PUSH0 DUP1 REVERT JUMPDEST POP PUSH2 0x774 DUP1 PUSH2 0x27 PUSH0 CODECOPY PUSH0 RETURN INVALID PUSH1 0x80 PUSH1 0x40 MSTORE PUSH1 0x4 CALLDATASIZE LT PUSH2 0x33 JUMPI PUSH0 CALLDATALOAD PUSH1 0xE0 SHR DUP1 PUSH4 0x3E47D6F3 EQ PUSH2 0x37 JUMPI DUP1 PUSH4 0xB60D4288 EQ PUSH2 0x73 JUMPI DUP1 PUSH4 0xDC0D3DFF EQ PUSH2 0x7D JUMPI JUMPDEST PUSH0 DUP1 REVERT JUMPDEST CALLVALUE DUP1 ISZERO PUSH2 0x42 JUMPI PUSH0 DUP1 REVERT JUMPDEST POP PUSH2 0x5D PUSH1 0x4 DUP1 CALLDATASIZE SUB DUP2 ADD SWAP1 PUSH2 0x58 SWAP2 SWAP1 PUSH2 0x37C JUMP JUMPDEST PUSH2 0xB9 JUMP JUMPDEST PUSH1 0x40 MLOAD PUSH2 0x6A SWAP2 SWAP1 PUSH2 0x3BF JUMP JUMPDEST PUSH1 0x40 MLOAD DUP1 SWAP2 SUB SWAP1 RETURN JUMPDEST PUSH2 0x7B PUSH2 0xCE JUMP JUMPDEST STOP JUMPDEST CALLVALUE DUP1 ISZERO PUSH2 0x88 JUMPI PUSH0 DUP1 REVERT JUMPDEST POP PUSH2 0xA3 PUSH1 0x4 DUP1 CALLDATASIZE SUB DUP2 ADD SWAP1 PUSH2 0x9E SWAP2 SWAP1 PUSH2 0x402 JUMP JUMPDEST PUSH2 0x206 JUMP JUMPDEST PUSH1 0x40 MLOAD PUSH2 0xB0 SWAP2 SWAP1 PUSH2 0x43C JUMP JUMPDEST PUSH1 0x40 MLOAD DUP1 SWAP2 SUB SWAP1 RETURN JUMPDEST PUSH1 0x2 PUSH1 0x20 MSTORE DUP1 PUSH0 MSTORE PUSH1 0x40 PUSH0 KECCAK256 PUSH0 SWAP2 POP SWAP1 POP SLOAD DUP2 JUMP JUMPDEST PUSH0 SLOAD PUSH2 0xD9 CALLVALUE PUSH2 0x241 JUMP JUMPDEST LT ISZERO PUSH2 0x11A JUMPI PUSH1 0x40 MLOAD PUSH32 0x8C379A000000000000000000000000000000000000000000000000000000000 DUP2 MSTORE PUSH1 0x4 ADD PUSH2 0x111 SWAP1 PUSH2 0x4AF JUMP JUMPDEST PUSH1 0x40 MLOAD DUP1 SWAP2 SUB SWAP1 REVERT JUMPDEST PUSH1 0x1 CALLER SWAP1 DUP1 PUSH1 0x1 DUP2 SLOAD ADD DUP1 DUP3 SSTORE DUP1 SWAP2 POP POP PUSH1 0x1 SWAP1 SUB SWAP1 PUSH0 MSTORE PUSH1 0x20 PUSH0 KECCAK256 ADD PUSH0 SWAP1 SWAP2 SWAP1 SWAP2 SWAP1 SWAP2 PUSH2 0x100 EXP DUP2 SLOAD DUP2 PUSH20 0xFFFFFFFFFFFFFFFFFFFFFFFFFFFFFFFFFFFFFFFF MUL NOT AND SWAP1 DUP4 PUSH20 0xFFFFFFFFFFFFFFFFFFFFFFFFFFFFFFFFFFFFFFFF AND MUL OR SWAP1 SSTORE POP CALLVALUE PUSH1 0x2 PUSH0 CALLER PUSH20 0xFFFFFFFFFFFFFFFFFFFFFFFFFFFFFFFFFFFFFFFF AND PUSH20 0xFFFFFFFFFFFFFFFFFFFFFFFFFFFFFFFFFFFFFFFF AND DUP2 MSTORE PUSH1 0x20 ADD SWAP1 DUP2 MSTORE PUSH1 0x20 ADD PUSH0 KECCAK256 SLOAD PUSH2 0x1C3 SWAP2 SWAP1 PUSH2 0x4FA JUMP JUMPDEST PUSH1 0x2 PUSH0 CALLER PUSH20 0xFFFFFFFFFFFFFFFFFFFFFFFFFFFFFFFFFFFFFFFF AND PUSH20 0xFFFFFFFFFFFFFFFFFFFFFFFFFFFFFFFFFFFFFFFF AND DUP2 MSTORE PUSH1 0x20 ADD SWAP1 DUP2 MSTORE PUSH1 0x20 ADD PUSH0 KECCAK256 DUP2 SWAP1 SSTORE POP JUMP JUMPDEST PUSH1 0x1 DUP2 DUP2 SLOAD DUP2 LT PUSH2 0x215 JUMPI PUSH0 DUP1 REVERT JUMPDEST SWAP1 PUSH0 MSTORE PUSH1 0x20 PUSH0 KECCAK256 ADD PUSH0 SWAP2 POP SLOAD SWAP1 PUSH2 0x100 EXP SWAP1 DIV PUSH20 0xFFFFFFFFFFFFFFFFFFFFFFFFFFFFFFFFFFFFFFFF AND DUP2 JUMP JUMPDEST PUSH0 DUP1 PUSH2 0x24B PUSH2 0x279 JUMP JUMPDEST SWAP1 POP PUSH0 PUSH8 0xDE0B6B3A7640000 DUP3 DUP6 PUSH2 0x263 SWAP2 SWAP1 PUSH2 0x52D JUMP JUMPDEST PUSH2 0x26D SWAP2 SWAP1 PUSH2 0x59B JUMP JUMPDEST SWAP1 POP DUP1 SWAP3 POP POP POP SWAP2 SWAP1 POP JUMP JUMPDEST PUSH0 DUP1 PUSH20 0x694AA1769357215DE4FAC081BF1F309ADC325306 SWAP1 POP PUSH0 DUP2 PUSH20 0xFFFFFFFFFFFFFFFFFFFFFFFFFFFFFFFFFFFFFFFF AND PUSH4 0xFEAF968C PUSH1 0x40 MLOAD DUP2 PUSH4 0xFFFFFFFF AND PUSH1 0xE0 SHL DUP2 MSTORE PUSH1 0x4 ADD PUSH1 0xA0 PUSH1 0x40 MLOAD DUP1 DUP4 SUB DUP2 DUP7 GAS STATICCALL ISZERO DUP1 ISZERO PUSH2 0x2DC JUMPI RETURNDATASIZE PUSH0 DUP1 RETURNDATACOPY RETURNDATASIZE PUSH0 REVERT JUMPDEST POP POP POP POP PUSH1 0x40 MLOAD RETURNDATASIZE PUSH1 0x1F NOT PUSH1 0x1F DUP3 ADD AND DUP3 ADD DUP1 PUSH1 0x40 MSTORE POP DUP2 ADD SWAP1 PUSH2 0x300 SWAP2 SWAP1 PUSH2 0x651 JUMP JUMPDEST POP POP POP SWAP2 POP POP PUSH5 0x2540BE400 DUP2 PUSH2 0x317 SWAP2 SWAP1 PUSH2 0x6C8 JUMP JUMPDEST SWAP3 POP POP POP SWAP1 JUMP JUMPDEST PUSH0 DUP1 REVERT JUMPDEST PUSH0 PUSH20 0xFFFFFFFFFFFFFFFFFFFFFFFFFFFFFFFFFFFFFFFF DUP3 AND SWAP1 POP SWAP2 SWAP1 POP JUMP JUMPDEST PUSH0 PUSH2 0x34B DUP3 PUSH2 0x322 JUMP JUMPDEST SWAP1 POP SWAP2 SWAP1 POP JUMP JUMPDEST PUSH2 0x35B DUP2 PUSH2 0x341 JUMP JUMPDEST DUP2 EQ PUSH2 0x365 JUMPI PUSH0 DUP1 REVERT JUMPDEST POP JUMP JUMPDEST PUSH0 DUP2 CALLDATALOAD SWAP1 POP PUSH2 0x376 DUP2 PUSH2 0x352 JUMP JUMPDEST SWAP3 SWAP2 POP POP JUMP JUMPDEST PUSH0 PUSH1 0x20 DUP3 DUP5 SUB SLT ISZERO PUSH2 0x391 JUMPI PUSH2 0x390 PUSH2 0x31E JUMP JUMPDEST JUMPDEST PUSH0 PUSH2 0x39E DUP5 DUP3 DUP6 ADD PUSH2 0x368 JUMP JUMPDEST SWAP2 POP POP SWAP3 SWAP2 POP POP JUMP JUMPDEST PUSH0 DUP2 SWAP1 POP SWAP2 SWAP1 POP JUMP JUMPDEST PUSH2 0x3B9 DUP2 PUSH2 0x3A7 JUMP JUMPDEST DUP3 MSTORE POP POP JUMP JUMPDEST PUSH0 PUSH1 0x20 DUP3 ADD SWAP1 POP PUSH2 0x3D2 PUSH0 DUP4 ADD DUP5 PUSH2 0x3B0 JUMP JUMPDEST SWAP3 SWAP2 POP POP JUMP JUMPDEST PUSH2 0x3E1 DUP2 PUSH2 0x3A7 JUMP JUMPDEST DUP2 EQ PUSH2 0x3EB JUMPI PUSH0 DUP1 REVERT JUMPDEST POP JUMP JUMPDEST PUSH0 DUP2 CALLDATALOAD SWAP1 POP PUSH2 0x3FC DUP2 PUSH2 0x3D8 JUMP JUMPDEST SWAP3 SWAP2 POP POP JUMP JUMPDEST PUSH0 PUSH1 0x20 DUP3 DUP5 SUB SLT ISZERO PUSH2 0x417 JUMPI PUSH2 0x416 PUSH2 0x31E JUMP JUMPDEST JUMPDEST PUSH0 PUSH2 0x424 DUP5 DUP3 DUP6 ADD PUSH2 0x3EE JUMP JUMPDEST SWAP2 POP POP SWAP3 SWAP2 POP POP JUMP JUMPDEST PUSH2 0x436 DUP2 PUSH2 0x341 JUMP JUMPDEST DUP3 MSTORE POP POP JUMP JUMPDEST PUSH0 PUSH1 0x20 DUP3 ADD SWAP1 POP PUSH2 0x44F PUSH0 DUP4 ADD DUP5 PUSH2 0x42D JUMP JUMPDEST SWAP3 SWAP2 POP POP JUMP JUMPDEST PUSH0 DUP3 DUP3 MSTORE PUSH1 0x20 DUP3 ADD SWAP1 POP SWAP3 SWAP2 POP POP JUMP JUMPDEST PUSH32 0x6469646E27742073656E6420656E6F7567682045544800000000000000000000 PUSH0 DUP3 ADD MSTORE POP JUMP JUMPDEST PUSH0 PUSH2 0x499 PUSH1 0x16 DUP4 PUSH2 0x455 JUMP JUMPDEST SWAP2 POP PUSH2 0x4A4 DUP3 PUSH2 0x465 JUMP JUMPDEST PUSH1 0x20 DUP3 ADD SWAP1 POP SWAP2 SWAP1 POP JUMP JUMPDEST PUSH0 PUSH1 0x20 DUP3 ADD SWAP1 POP DUP2 DUP2 SUB PUSH0 DUP4 ADD MSTORE PUSH2 0x4C6 DUP2 PUSH2 0x48D JUMP JUMPDEST SWAP1 POP SWAP2 SWAP1 POP JUMP JUMPDEST PUSH32 0x4E487B7100000000000000000000000000000000000000000000000000000000 PUSH0 MSTORE PUSH1 0x11 PUSH1 0x4 MSTORE PUSH1 0x24 PUSH0 REVERT JUMPDEST PUSH0 PUSH2 0x504 DUP3 PUSH2 0x3A7 JUMP JUMPDEST SWAP2 POP PUSH2 0x50F DUP4 PUSH2 0x3A7 JUMP JUMPDEST SWAP3 POP DUP3 DUP3 ADD SWAP1 POP DUP1 DUP3 GT ISZERO PUSH2 0x527 JUMPI PUSH2 0x526 PUSH2 0x4CD JUMP JUMPDEST JUMPDEST SWAP3 SWAP2 POP POP JUMP JUMPDEST PUSH0 PUSH2 0x537 DUP3 PUSH2 0x3A7 JUMP JUMPDEST SWAP2 POP PUSH2 0x542 DUP4 PUSH2 0x3A7 JUMP JUMPDEST SWAP3 POP DUP3 DUP3 MUL PUSH2 0x550 DUP2 PUSH2 0x3A7 JUMP JUMPDEST SWAP2 POP DUP3 DUP3 DIV DUP5 EQ DUP4 ISZERO OR PUSH2 0x567 JUMPI PUSH2 0x566 PUSH2 0x4CD JUMP JUMPDEST JUMPDEST POP SWAP3 SWAP2 POP POP JUMP JUMPDEST PUSH32 0x4E487B7100000000000000000000000000000000000000000000000000000000 PUSH0 MSTORE PUSH1 0x12 PUSH1 0x4 MSTORE PUSH1 0x24 PUSH0 REVERT JUMPDEST PUSH0 PUSH2 0x5A5 DUP3 PUSH2 0x3A7 JUMP JUMPDEST SWAP2 POP PUSH2 0x5B0 DUP4 PUSH2 0x3A7 JUMP JUMPDEST SWAP3 POP DUP3 PUSH2 0x5C0 JUMPI PUSH2 0x5BF PUSH2 0x56E JUMP JUMPDEST JUMPDEST DUP3 DUP3 DIV SWAP1 POP SWAP3 SWAP2 POP POP JUMP JUMPDEST PUSH0 PUSH10 0xFFFFFFFFFFFFFFFFFFFF DUP3 AND SWAP1 POP SWAP2 SWAP1 POP JUMP JUMPDEST PUSH2 0x5E9 DUP2 PUSH2 0x5CB JUMP JUMPDEST DUP2 EQ PUSH2 0x5F3 JUMPI PUSH0 DUP1 REVERT JUMPDEST POP JUMP JUMPDEST PUSH0 DUP2 MLOAD SWAP1 POP PUSH2 0x604 DUP2 PUSH2 0x5E0 JUMP JUMPDEST SWAP3 SWAP2 POP POP JUMP JUMPDEST PUSH0 DUP2 SWAP1 POP SWAP2 SWAP1 POP JUMP JUMPDEST PUSH2 0x61C DUP2 PUSH2 0x60A JUMP JUMPDEST DUP2 EQ PUSH2 0x626 JUMPI PUSH0 DUP1 REVERT JUMPDEST POP JUMP JUMPDEST PUSH0 DUP2 MLOAD SWAP1 POP PUSH2 0x637 DUP2 PUSH2 0x613 JUMP JUMPDEST SWAP3 SWAP2 POP POP JUMP JUMPDEST PUSH0 DUP2 MLOAD SWAP1 POP PUSH2 0x64B DUP2 PUSH2 0x3D8 JUMP JUMPDEST SWAP3 SWAP2 POP POP JUMP JUMPDEST PUSH0 DUP1 PUSH0 DUP1 PUSH0 PUSH1 0xA0 DUP7 DUP9 SUB SLT ISZERO PUSH2 0x66A JUMPI PUSH2 0x669 PUSH2 0x31E JUMP JUMPDEST JUMPDEST PUSH0 PUSH2 0x677 DUP9 DUP3 DUP10 ADD PUSH2 0x5F6 JUMP JUMPDEST SWAP6 POP POP PUSH1 0x20 PUSH2 0x688 DUP9 DUP3 DUP10 ADD PUSH2 0x629 JUMP JUMPDEST SWAP5 POP POP PUSH1 0x40 PUSH2 0x699 DUP9 DUP3 DUP10 ADD PUSH2 0x63D JUMP JUMPDEST SWAP4 POP POP PUSH1 0x60 PUSH2 0x6AA DUP9 DUP3 DUP10 ADD PUSH2 0x63D JUMP JUMPDEST SWAP3 POP POP PUSH1 0x80 PUSH2 0x6BB DUP9 DUP3 DUP10 ADD PUSH2 0x5F6 JUMP JUMPDEST SWAP2 POP POP SWAP3 SWAP6 POP SWAP3 SWAP6 SWAP1 SWAP4 POP JUMP JUMPDEST PUSH0 PUSH2 0x6D2 DUP3 PUSH2 0x60A JUMP JUMPDEST SWAP2 POP PUSH2 0x6DD DUP4 PUSH2 0x60A JUMP JUMPDEST SWAP3 POP DUP3 DUP3 MUL PUSH2 0x6EB DUP2 PUSH2 0x60A JUMP JUMPDEST SWAP2 POP PUSH32 0x8000000000000000000000000000000000000000000000000000000000000000 DUP5 EQ PUSH0 DUP5 SLT AND ISZERO PUSH2 0x722 JUMPI PUSH2 0x721 PUSH2 0x4CD JUMP JUMPDEST JUMPDEST DUP3 DUP3 SDIV DUP5 EQ DUP4 ISZERO OR PUSH2 0x737 JUMPI PUSH2 0x736 PUSH2 0x4CD JUMP JUMPDEST JUMPDEST POP SWAP3 SWAP2 POP POP JUMP INVALID LOG2 PUSH5 0x6970667358 0x22 SLT KECCAK256 JUMPI 0xDA DUP13 0xE3 SWAP6 MCOPY 0xE7 KECCAK256 CALLDATALOAD 0xE2 0xB9 ADD 0x27 ADD SSTORE 0xC7 0x2B CHAINID PUSH31 0x82802AF158937C3CDEFDCE4C6764736F6C634300081A003300000000000000 "
		},
		"gasEstimates": {
			"creation": {
				"codeDepositCost": "381600",
				"executionCost": "22521",
				"totalCost": "404121"
			},
			"external": {
				"addressToAmountFunded(address)": "2780",
				"fund()": "infinite",
				"funders(uint256)": "4966"
			}
		},
		"methodIdentifiers": {
			"addressToAmountFunded(address)": "3e47d6f3",
			"fund()": "b60d4288",
			"funders(uint256)": "dc0d3dff"
		}
	},
	"abi": [
		{
			"inputs": [
				{
					"internalType": "address",
					"name": "funder",
					"type": "address"
				}
			],
			"name": "addressToAmountFunded",
			"outputs": [
				{
					"internalType": "uint256",
					"name": "amountFunded",
					"type": "uint256"
				}
			],
			"stateMutability": "view",
			"type": "function"
		},
		{
			"inputs": [],
			"name": "fund",
			"outputs": [],
			"stateMutability": "payable",
			"type": "function"
		},
		{
			"inputs": [
				{
					"internalType": "uint256",
					"name": "",
					"type": "uint256"
				}
			],
			"name": "funders",
			"outputs": [
				{
					"internalType": "address",
					"name": "",
					"type": "address"
				}
			],
			"stateMutability": "view",
			"type": "function"
		}
	]
}